:100000000C9438000C9442000C9442000C94420072
:100010000C9442000C9442000C9442000C94420058
:100020000C9442000C9442000C9442000C94420048
:100030000C9442000C9442000C9442000C94420038
:100040000C9442000C9442000C9442000C94420028
:100050000C9442000C9442000C9442000C94420018
:100060000C9442000C9442000C9442000C94420008
:1000700011241FBECFEFD4E0DEBFCDBF0E944F00E2
:100080000C94B9000C94000018BA83B3813021F4A9
:1000900080B38F7090E0089580E190E00895CF9351
:1000A000DF93CDB7DEB768970FB6F894DEBF0FBE0B
:1000B000CDBFFE01319684E1DF011D928A95E9F7FB
:1000C00087E3898388E38A8389E38B8381E48C8354
:1000D00084E38D8395E39E8396E39F8392E49887E0
:1000E00031E3398722E32A8793E39B8743E44C87F4
:1000F0004AE24D8740E34E8743E24F8744E4488B12
:1001000040EF41BB4FEF4ABB14BA42E047BB3D8BC7
:100110002E8B9F8B888F86EC8BBB00E010E002C09B
:1001200000E010E00E94440080319105D9F3E1E045
:10013000F0E0EC0FFD1FE80FF91F8081E5E1F0E032
:10014000EC0FFD1FE00FF11F908189130AC00F5FB4
:100150001F4F0430110531F780EC8BBB00E010E03D
:10016000E1CF8A32E9F204301105E1F286EC8BBB73
:06017000D9CFF894FFCF87
:00000001FF
