S01700004D4253442D61737369676E6D656E742E7372656381
S11300000C9438000C9442000C9442000C9442006E
S11300100C9442000C9442000C9442000C94420054
S11300200C9442000C9442000C9442000C94420044
S11300300C9442000C9442000C9442000C94420034
S11300400C9442000C9442000C9442000C94420024
S11300500C9442000C9442000C9442000C94420014
S11300600C9442000C9442000C9442000C94420004
S113007011241FBECFEFD4E0DEBFCDBF0E944F00DE
S11300800C94CF000C94000018BA83B3813021F48F
S113009080B38F7090E0089580E190E00895CF934D
S11300A0DF93CDB7DEB768970FB6F894DEBF0FBE07
S11300B0CDBFFE01319684E1DF011D928A95E9F7F7
S11300C087E3898388E38A8389E38B8381E48C8350
S11300D084E38D8395E39E8396E39F8392E49887DC
S11300E031E3398722E32A8793E39B8743E44C87F0
S11300F04AE24D8740E34E8743E24F8744E4488B0E
S113010040EF41BB4FEF4ABB14BA42E047BB3D8BC3
S11301102E8B9F8B888F86EC8BBB00E010E00E94B7
S113012044008031910591F1E1E0F0E0EC0FFD1F16
S1130130E80FF91F8081E5E1F0E0EC0FFD1FE00F0F
S1130140F11F9081891306C00430110519F00F5F67
S11301501F4F1CC08033A9F0833221F401501109D0
S11301601BBA14C0F801319725E130E02C0F3D1F74
S1130170E20FF31F9081891749F00430110521F42F
S113018005C000E010E002C000E010E004301105FA
S113019019F480EC8BBBC3CF86EC8BBBC0CFF89437
S10501A0FFCF8B
S9030000FC
