S01700004D4253442D61737369676E6D656E742E7372656381
S11300000C9438000C9442000C9442000C9442006E
S11300100C9442000C9442000C9442000C94420054
S11300200C9442000C9442000C9442000C94420044
S11300300C9442000C9442000C9442000C94420034
S11300400C9442000C9442000C9442000C94420024
S11300500C9442000C9442000C9442000C94420014
S11300600C9442000C9442000C9442000C94420004
S113007011241FBECFEFD4E0DEBFCDBF0E946D00C0
S11300800C941F010C94000018BA83B3813021F43E
S113009080B38F7090E0089580E190E00895CF934D
S11300A0DF93EC01DA0120E030E00CC0FE01E20F46
S11300B0F31F5081FB01E20FF31F9081591308C015
S11300C02F5F3F4F2A173B078CF380E090E002C07C
S11300D081E090E0DF91CF910895CF93DF93CDB786
S11300E0DEB76C970FB6F894DEBF0FBECDBFFE012E
S11300F0319684E1DF011D928A95E9F787E38983CC
S113010088E38A8389E38B8381E48C8384E38D830E
S113011095E39E8396E39F8392E4988731E339873E
S113012022E32A8793E39B8743E44C874AE24D8783
S113013040E34E8743E24F8744E4488B40EF41BBA2
S11301405FEF5ABB44BB42E047BB3D8B2E8B9F8B7A
S1130150888F86EC8BBB00E010E0E12CF12C0E9430
S113016044008031910509F442C0E1E0F0E0EC0F75
S1130170FD1FE80FF91F8081E5E1F0E0EC0FFD1FA2
S1130180E00FF11F908189130DC00430110551F067
S1130190E9E1F0E0EC0FFD1FE00FF11F90830F5F2A
S11301A01F4F25C0803309F1833221F40150110916
S11301B01BBA1DC0F801319725E130E02C0F3D1F1B
S11301C0E20FF31F9081891791F00430110579F043
S11301D0FE01799684E0DF011D928A95E9F7BFEF6D
S11301E0EB1AFB0A00E010E002C000E010E004306B
S11301F0110579F444E050E0BE01675E7F4FCE0103
S113020045960E944F00892B21F480EC8BBBE12C96
S1130210F12C24E0E216F10479F481E885BB3FE394
S113022082E49FE0315080409040E1F700C000003C
S113023015BAE12CF12C93CF86EC8BBB90CFF894BC
S1050240FFCFEA
S9030000FC
