S01700004D4253442D61737369676E6D656E742E7372656381
S11300000C9438000C9442000C9442000C9442006E
S11300100C9442000C9442000C9442000C94420054
S11300200C9442000C9442000C9442000C94420044
S11300300C9442000C9442000C9442000C94420034
S11300400C9442000C9442000C9442000C94420024
S11300500C9442000C9442000C9442000C94420014
S11300600C9442000C9442000C9442000C94420004
S113007011241FBECFEFD4E0DEBFCDBF0E946D00C0
S11300800C9437010C94000018BA83B3813021F426
S113009080B38F7090E0089580E190E00895CF934D
S11300A0DF93EC01DA0120E030E00CC0FE01E20F46
S11300B0F31F5081FB01E20FF31F9081591308C015
S11300C02F5F3F4F2A173B078CF380E090E002C07C
S11300D081E090E0DF91CF910895CF93DF93CDB786
S11300E0DEB76C970FB6F894DEBF0FBECDBFFE012E
S11300F0319684E1DF011D928A95E9F787E38983CC
S113010088E38A8389E38B8381E48C8384E38D830E
S113011095E39E8396E39F8392E4988731E339873E
S113012022E32A8793E39B8743E44C874AE24D8783
S113013040E34E8743E24F8744E4488B11BA4FEFC4
S11301404ABB40EF44BB42E047BB3D8B2E8B9F8BA9
S1130150888F86EC8BBB00E010E0E12CF12C0E9430
S113016044008031910509F456C0E1E0F0E0EC0F61
S1130170FD1FE80FF91F8081E5E1F0E0EC0FFD1FA2
S1130180E00FF11F908189130DC00430110551F067
S1130190E9E1F0E0EC0FFD1FE00FF11F90830F5F2A
S11301A01F4F39C08A32A9F1F801319725E130E0B7
S11301B02C0F3D1FE20FF31F9081891761F104306A
S11301C0110549F1FE01799684E0DF011D928A95BB
S11301D0E9F7BFE926E831E0B15020403040E1F7CB
S11301E000C00000C70183709927892B61F481E85E
S11301F085BB8FE39DE0A3E081509040A040E1F7F0
S113020000C0000015BABFEFEB1AFB0A00E010E0D3
S113021002C000E010E00430110579F444E050E03D
S1130220BE01675E7F4FCE0145960E944F00892B29
S113023021F480EC8BBBE12CF12C849B02C000E008
S113024010E02CE0E216F10479F481E885BB3FE389
S113025082E49FE0315080409040E1F700C000000C
S113026015BAE12CF12C7BCF86EC8BBB78CFF894BC
S1050270FFCFBA
S9030000FC
