:100000000C9438000C9442000C9442000C94420072
:100010000C9442000C9442000C9442000C94420058
:100020000C9442000C9442000C9442000C94420048
:100030000C9442000C9442000C9442000C94420038
:100040000C9442000C9442000C9442000C94420028
:100050000C9442000C9442000C9442000C94420018
:100060000C9442000C9442000C9442000C94420008
:1000700011241FBECFEFD4E0DEBFCDBF0E944F00E2
:100080000C9475000C94000018BA83B3813021F4ED
:1000900080B38F7090E0089580E190E00895CF9351
:1000A000DF93CDB7DEB764970FB6F894DEBF0FBE0F
:1000B000CDBFFE01319684E1DF011D928A95E9F7FB
:1000C00080EF81BB8FEF8ABB14BA82E087BB89893E
:1000D0008BBB0E9444008031910511F020EC2BBBBA
:0E00E0004097B9F786EC8BBBF4CFF894FFCFB6
:00000001FF
