:100000000C9438000C9442000C9442000C94420072
:100010000C9442000C9442000C9442000C94420058
:100020000C9442000C9442000C9442000C94420048
:100030000C9442000C9442000C9442000C94420038
:100040000C9442000C9442000C9442000C94420028
:100050000C9442000C9442000C9442000C94420018
:100060000C9442000C9442000C9442000C94420008
:1000700011241FBECFEFD4E0DEBFCDBF0E946D00C4
:100080000C940B010C94000018BA83B3813021F456
:1000900080B38F7090E0089580E190E00895CF9351
:1000A000DF93EC01DA0120E030E00CC0FE01E20F4A
:1000B000F31F5081FB01E20FF31F9081591308C019
:1000C0002F5F3F4F2A173B078CF380E090E002C080
:1000D00081E090E0DF91CF910895CF93DF93CDB78A
:1000E000DEB76C970FB6F894DEBF0FBECDBFFE0132
:1000F000319684E1DF011D928A95E9F787E38983D0
:1001000088E38A8389E38B8381E48C8384E38D8312
:1001100095E39E8396E39F8392E4988731E3398742
:1001200022E32A8793E39B8743E44C874AE24D8787
:1001300040E34E8743E24F8744E4488B11BA4FEFC8
:100140004ABB14BA42E047BB3D8B2E8B9F8B888FF6
:1001500086EC8BBB00E010E00E94440080319105EA
:10016000C9F1E1E0F0E0EC0FFD1FE80FF91F80811D
:10017000E5E1F0E0EC0FFD1FE00FF11F9081891326
:100180000FC00430110561F0E9E1F0E0EC0FFD1F54
:10019000E00FF11F90837801BFEFEB1AFB0A22C03A
:1001A0008A32D1F0F801319725E130E02C0F3D1F64
:1001B000E20FF31F9081891791F00430110589F047
:1001C000FE01799684E0DF011D928A95E9F7E12C22
:1001D000F12C08C0780106C0E12CF12C03C0780195
:1001E00001C07801B4E0EB16F10469F444E050E09A
:1001F000BE01675E7F4FCE0145960E944F00892B5E
:1002000011F480EC8BBB00E010E08499A5CF86EC64
:0A0210008BBB8701A1CFF894FFCF4C
:00000001FF
